{
  "_format": "hh-sol-artifact-1",
  "contractName": "PerioNFT",
  "sourceName": "Solidity/PerioNFT.sol",
  "abi": [
    {
      "inputs": [
        {
          "internalType": "string",
          "name": "_name",
          "type": "string"
        },
        {
          "internalType": "string",
          "name": "_symbol",
          "type": "string"
        },
        {
          "internalType": "string",
          "name": "_baseURI",
          "type": "string"
        }
      ],
      "stateMutability": "nonpayable",
      "type": "constructor"
    },
    {
      "anonymous": false,
      "inputs": [
        {
          "indexed": true,
          "internalType": "address",
          "name": "owner",
          "type": "address"
        },
        {
          "indexed": true,
          "internalType": "address",
          "name": "approved",
          "type": "address"
        },
        {
          "indexed": true,
          "internalType": "uint256",
          "name": "tokenId",
          "type": "uint256"
        }
      ],
      "name": "Approval",
      "type": "event"
    },
    {
      "anonymous": false,
      "inputs": [
        {
          "indexed": true,
          "internalType": "address",
          "name": "owner",
          "type": "address"
        },
        {
          "indexed": true,
          "internalType": "address",
          "name": "operator",
          "type": "address"
        },
        {
          "indexed": false,
          "internalType": "bool",
          "name": "approved",
          "type": "bool"
        }
      ],
      "name": "ApprovalForAll",
      "type": "event"
    },
    {
      "anonymous": false,
      "inputs": [
        {
          "indexed": true,
          "internalType": "address",
          "name": "previousOwner",
          "type": "address"
        },
        {
          "indexed": true,
          "internalType": "address",
          "name": "newOwner",
          "type": "address"
        }
      ],
      "name": "OwnershipTransferred",
      "type": "event"
    },
    {
      "anonymous": false,
      "inputs": [
        {
          "indexed": true,
          "internalType": "address",
          "name": "from",
          "type": "address"
        },
        {
          "indexed": true,
          "internalType": "address",
          "name": "to",
          "type": "address"
        },
        {
          "indexed": true,
          "internalType": "uint256",
          "name": "tokenId",
          "type": "uint256"
        }
      ],
      "name": "Transfer",
      "type": "event"
    },
    {
      "inputs": [
        {
          "internalType": "address",
          "name": "to",
          "type": "address"
        },
        {
          "internalType": "uint256",
          "name": "tokenId",
          "type": "uint256"
        }
      ],
      "name": "approve",
      "outputs": [],
      "stateMutability": "nonpayable",
      "type": "function"
    },
    {
      "inputs": [
        {
          "internalType": "address",
          "name": "owner",
          "type": "address"
        }
      ],
      "name": "balanceOf",
      "outputs": [
        {
          "internalType": "uint256",
          "name": "",
          "type": "uint256"
        }
      ],
      "stateMutability": "view",
      "type": "function"
    },
    {
      "inputs": [],
      "name": "baseURI",
      "outputs": [
        {
          "internalType": "string",
          "name": "",
          "type": "string"
        }
      ],
      "stateMutability": "view",
      "type": "function"
    },
    {
      "inputs": [
        {
          "internalType": "address",
          "name": "recipient",
          "type": "address"
        }
      ],
      "name": "createNFT",
      "outputs": [
        {
          "internalType": "uint256",
          "name": "",
          "type": "uint256"
        }
      ],
      "stateMutability": "nonpayable",
      "type": "function"
    },
    {
      "inputs": [
        {
          "internalType": "uint256",
          "name": "tokenId",
          "type": "uint256"
        }
      ],
      "name": "getApproved",
      "outputs": [
        {
          "internalType": "address",
          "name": "",
          "type": "address"
        }
      ],
      "stateMutability": "view",
      "type": "function"
    },
    {
      "inputs": [
        {
          "internalType": "address",
          "name": "owner",
          "type": "address"
        },
        {
          "internalType": "address",
          "name": "operator",
          "type": "address"
        }
      ],
      "name": "isApprovedForAll",
      "outputs": [
        {
          "internalType": "bool",
          "name": "",
          "type": "bool"
        }
      ],
      "stateMutability": "view",
      "type": "function"
    },
    {
      "inputs": [],
      "name": "name",
      "outputs": [
        {
          "internalType": "string",
          "name": "",
          "type": "string"
        }
      ],
      "stateMutability": "view",
      "type": "function"
    },
    {
      "inputs": [],
      "name": "owner",
      "outputs": [
        {
          "internalType": "address",
          "name": "",
          "type": "address"
        }
      ],
      "stateMutability": "view",
      "type": "function"
    },
    {
      "inputs": [
        {
          "internalType": "uint256",
          "name": "tokenId",
          "type": "uint256"
        }
      ],
      "name": "ownerOf",
      "outputs": [
        {
          "internalType": "address",
          "name": "",
          "type": "address"
        }
      ],
      "stateMutability": "view",
      "type": "function"
    },
    {
      "inputs": [],
      "name": "renounceOwnership",
      "outputs": [],
      "stateMutability": "nonpayable",
      "type": "function"
    },
    {
      "inputs": [
        {
          "internalType": "address",
          "name": "from",
          "type": "address"
        },
        {
          "internalType": "address",
          "name": "to",
          "type": "address"
        },
        {
          "internalType": "uint256",
          "name": "tokenId",
          "type": "uint256"
        }
      ],
      "name": "safeTransferFrom",
      "outputs": [],
      "stateMutability": "nonpayable",
      "type": "function"
    },
    {
      "inputs": [
        {
          "internalType": "address",
          "name": "from",
          "type": "address"
        },
        {
          "internalType": "address",
          "name": "to",
          "type": "address"
        },
        {
          "internalType": "uint256",
          "name": "tokenId",
          "type": "uint256"
        },
        {
          "internalType": "bytes",
          "name": "data",
          "type": "bytes"
        }
      ],
      "name": "safeTransferFrom",
      "outputs": [],
      "stateMutability": "nonpayable",
      "type": "function"
    },
    {
      "inputs": [
        {
          "internalType": "address",
          "name": "operator",
          "type": "address"
        },
        {
          "internalType": "bool",
          "name": "approved",
          "type": "bool"
        }
      ],
      "name": "setApprovalForAll",
      "outputs": [],
      "stateMutability": "nonpayable",
      "type": "function"
    },
    {
      "inputs": [
        {
          "internalType": "bytes4",
          "name": "interfaceId",
          "type": "bytes4"
        }
      ],
      "name": "supportsInterface",
      "outputs": [
        {
          "internalType": "bool",
          "name": "",
          "type": "bool"
        }
      ],
      "stateMutability": "view",
      "type": "function"
    },
    {
      "inputs": [],
      "name": "symbol",
      "outputs": [
        {
          "internalType": "string",
          "name": "",
          "type": "string"
        }
      ],
      "stateMutability": "view",
      "type": "function"
    },
    {
      "inputs": [],
      "name": "tokenCounter",
      "outputs": [
        {
          "internalType": "uint256",
          "name": "",
          "type": "uint256"
        }
      ],
      "stateMutability": "view",
      "type": "function"
    },
    {
      "inputs": [
        {
          "internalType": "uint256",
          "name": "tokenId",
          "type": "uint256"
        }
      ],
      "name": "tokenURI",
      "outputs": [
        {
          "internalType": "string",
          "name": "",
          "type": "string"
        }
      ],
      "stateMutability": "view",
      "type": "function"
    },
    {
      "inputs": [
        {
          "internalType": "address",
          "name": "from",
          "type": "address"
        },
        {
          "internalType": "address",
          "name": "to",
          "type": "address"
        },
        {
          "internalType": "uint256",
          "name": "tokenId",
          "type": "uint256"
        }
      ],
      "name": "transferFrom",
      "outputs": [],
      "stateMutability": "nonpayable",
      "type": "function"
    },
    {
      "inputs": [
        {
          "internalType": "address",
          "name": "newOwner",
          "type": "address"
        }
      ],
      "name": "transferOwnership",
      "outputs": [],
      "stateMutability": "nonpayable",
      "type": "function"
    }
  ],
  "bytecode": "0x60806040523480156200001157600080fd5b506040516200310f3803806200310f8339818101604052810190620000379190620002a7565b828281600090805190602001906200005192919062000185565b5080600190805190602001906200006a92919062000185565b5050506200008d62000081620000b760201b60201c565b620000bf60201b60201c565b8060079080519060200190620000a592919062000185565b506000600881905550505050620004b8565b600033905090565b6000600660009054906101000a900473ffffffffffffffffffffffffffffffffffffffff16905081600660006101000a81548173ffffffffffffffffffffffffffffffffffffffff021916908373ffffffffffffffffffffffffffffffffffffffff1602179055508173ffffffffffffffffffffffffffffffffffffffff168173ffffffffffffffffffffffffffffffffffffffff167f8be0079c531659141344cd1fd0a4f28419497f9722a3daafe3b4186f6b6457e060405160405180910390a35050565b8280546200019390620003dd565b90600052602060002090601f016020900481019282620001b7576000855562000203565b82601f10620001d257805160ff191683800117855562000203565b8280016001018555821562000203579182015b8281111562000202578251825591602001919060010190620001e5565b5b50905062000212919062000216565b5090565b5b808211156200023157600081600090555060010162000217565b5090565b60006200024c620002468462000371565b62000348565b9050828152602081018484840111156200026557600080fd5b62000272848285620003a7565b509392505050565b600082601f8301126200028c57600080fd5b81516200029e84826020860162000235565b91505092915050565b600080600060608486031215620002bd57600080fd5b600084015167ffffffffffffffff811115620002d857600080fd5b620002e6868287016200027a565b935050602084015167ffffffffffffffff8111156200030457600080fd5b62000312868287016200027a565b925050604084015167ffffffffffffffff8111156200033057600080fd5b6200033e868287016200027a565b9150509250925092565b60006200035462000367565b905062000362828262000413565b919050565b6000604051905090565b600067ffffffffffffffff8211156200038f576200038e62000478565b5b6200039a82620004a7565b9050602081019050919050565b60005b83811015620003c7578082015181840152602081019050620003aa565b83811115620003d7576000848401525b50505050565b60006002820490506001821680620003f657607f821691505b602082108114156200040d576200040c62000449565b5b50919050565b6200041e82620004a7565b810181811067ffffffffffffffff8211171562000440576200043f62000478565b5b80604052505050565b7f4e487b7100000000000000000000000000000000000000000000000000000000600052602260045260246000fd5b7f4e487b7100000000000000000000000000000000000000000000000000000000600052604160045260246000fd5b6000601f19601f8301169050919050565b612c4780620004c86000396000f3fe608060405234801561001057600080fd5b50600436106101215760003560e01c806370a08231116100ad578063b88d4fde11610071578063b88d4fde14610308578063c87b56dd14610324578063d082e38114610354578063e985e9c514610372578063f2fde38b146103a257610121565b806370a0823114610276578063715018a6146102a65780638da5cb5b146102b057806395d89b41146102ce578063a22cb465146102ec57610121565b806317e5883c116100f457806317e5883c146101c057806323b872dd146101f057806342842e0e1461020c5780636352211e146102285780636c0360eb1461025857610121565b806301ffc9a71461012657806306fdde0314610156578063081812fc14610174578063095ea7b3146101a4575b600080fd5b610140600480360381019061013b9190611eb8565b6103be565b60405161014d9190612325565b60405180910390f35b61015e6104a0565b60405161016b9190612340565b60405180910390f35b61018e60048036038101906101899190611f0a565b610532565b60405161019b91906122be565b60405180910390f35b6101be60048036038101906101b99190611e7c565b610578565b005b6101da60048036038101906101d59190611d11565b610690565b6040516101e79190612522565b60405180910390f35b61020a60048036038101906102059190611d76565b6106c9565b005b61022660048036038101906102219190611d76565b610729565b005b610242600480360381019061023d9190611f0a565b610749565b60405161024f91906122be565b60405180910390f35b6102606107d0565b60405161026d9190612340565b60405180910390f35b610290600480360381019061028b9190611d11565b61085e565b60405161029d9190612522565b60405180910390f35b6102ae610916565b005b6102b861092a565b6040516102c591906122be565b60405180910390f35b6102d6610954565b6040516102e39190612340565b60405180910390f35b61030660048036038101906103019190611e40565b6109e6565b005b610322600480360381019061031d9190611dc5565b6109fc565b005b61033e60048036038101906103399190611f0a565b610a5e565b60405161034b9190612340565b60405180910390f35b61035c610ada565b6040516103699190612522565b60405180910390f35b61038c60048036038101906103879190611d3a565b610ae0565b6040516103999190612325565b60405180910390f35b6103bc60048036038101906103b79190611d11565b610b74565b005b60007f80ac58cd000000000000000000000000000000000000000000000000000000007bffffffffffffffffffffffffffffffffffffffffffffffffffffffff1916827bffffffffffffffffffffffffffffffffffffffffffffffffffffffff1916148061048957507f5b5e139f000000000000000000000000000000000000000000000000000000007bffffffffffffffffffffffffffffffffffffffffffffffffffffffff1916827bffffffffffffffffffffffffffffffffffffffffffffffffffffffff1916145b80610499575061049882610bf8565b5b9050919050565b6060600080546104af906126f7565b80601f01602080910402602001604051908101604052809291908181526020018280546104db906126f7565b80156105285780601f106104fd57610100808354040283529160200191610528565b820191906000526020600020905b81548152906001019060200180831161050b57829003601f168201915b5050505050905090565b600061053d82610c62565b6004600083815260200190815260200160002060009054906101000a900473ffffffffffffffffffffffffffffffffffffffff169050919050565b600061058382610749565b90508073ffffffffffffffffffffffffffffffffffffffff168373ffffffffffffffffffffffffffffffffffffffff1614156105f4576040517f08c379a00000000000000000000000000000000000000000000000000000000081526004016105eb906124e2565b60405180910390fd5b8073ffffffffffffffffffffffffffffffffffffffff16610613610cad565b73ffffffffffffffffffffffffffffffffffffffff16148061064257506106418161063c610cad565b610ae0565b5b610681576040517f08c379a000000000000000000000000000000000000000000000000000000000815260040161067890612502565b60405180910390fd5b61068b8383610cb5565b505050565b600061069a610d6e565b600060085490506106ab8382610dec565b60016008546106ba91906125eb565b60088190555080915050919050565b6106da6106d4610cad565b82610e0a565b610719576040517f08c379a000000000000000000000000000000000000000000000000000000000815260040161071090612362565b60405180910390fd5b610724838383610e9f565b505050565b610744838383604051806020016040528060008152506109fc565b505050565b60008061075583611199565b9050600073ffffffffffffffffffffffffffffffffffffffff168173ffffffffffffffffffffffffffffffffffffffff1614156107c7576040517f08c379a00000000000000000000000000000000000000000000000000000000081526004016107be906124c2565b60405180910390fd5b80915050919050565b600780546107dd906126f7565b80601f0160208091040260200160405190810160405280929190818152602001828054610809906126f7565b80156108565780601f1061082b57610100808354040283529160200191610856565b820191906000526020600020905b81548152906001019060200180831161083957829003601f168201915b505050505081565b60008073ffffffffffffffffffffffffffffffffffffffff168273ffffffffffffffffffffffffffffffffffffffff1614156108cf576040517f08c379a00000000000000000000000000000000000000000000000000000000081526004016108c690612442565b60405180910390fd5b600360008373ffffffffffffffffffffffffffffffffffffffff1673ffffffffffffffffffffffffffffffffffffffff168152602001908152602001600020549050919050565b61091e610d6e565b61092860006111d6565b565b6000600660009054906101000a900473ffffffffffffffffffffffffffffffffffffffff16905090565b606060018054610963906126f7565b80601f016020809104026020016040519081016040528092919081815260200182805461098f906126f7565b80156109dc5780601f106109b1576101008083540402835291602001916109dc565b820191906000526020600020905b8154815290600101906020018083116109bf57829003601f168201915b5050505050905090565b6109f86109f1610cad565b838361129c565b5050565b610a0d610a07610cad565b83610e0a565b610a4c576040517f08c379a0000000000000000000000000000000000000000000000000000000008152600401610a4390612362565b60405180910390fd5b610a5884848484611409565b50505050565b6060610a6982611465565b610aa8576040517f08c379a0000000000000000000000000000000000000000000000000000000008152600401610a9f90612482565b60405180910390fd5b6007610ab3836114a6565b604051602001610ac492919061228f565b6040516020818303038152906040529050919050565b60085481565b6000600560008473ffffffffffffffffffffffffffffffffffffffff1673ffffffffffffffffffffffffffffffffffffffff16815260200190815260200160002060008373ffffffffffffffffffffffffffffffffffffffff1673ffffffffffffffffffffffffffffffffffffffff16815260200190815260200160002060009054906101000a900460ff16905092915050565b610b7c610d6e565b600073ffffffffffffffffffffffffffffffffffffffff168173ffffffffffffffffffffffffffffffffffffffff161415610bec576040517f08c379a0000000000000000000000000000000000000000000000000000000008152600401610be3906123a2565b60405180910390fd5b610bf5816111d6565b50565b60007f01ffc9a7000000000000000000000000000000000000000000000000000000007bffffffffffffffffffffffffffffffffffffffffffffffffffffffff1916827bffffffffffffffffffffffffffffffffffffffffffffffffffffffff1916149050919050565b610c6b81611465565b610caa576040517f08c379a0000000000000000000000000000000000000000000000000000000008152600401610ca1906124c2565b60405180910390fd5b50565b600033905090565b816004600083815260200190815260200160002060006101000a81548173ffffffffffffffffffffffffffffffffffffffff021916908373ffffffffffffffffffffffffffffffffffffffff160217905550808273ffffffffffffffffffffffffffffffffffffffff16610d2883610749565b73ffffffffffffffffffffffffffffffffffffffff167f8c5be1e5ebec7d5bd14f71427d1e84f3dd0314c0f7b2291e5b200ac8c7c3b92560405160405180910390a45050565b610d76610cad565b73ffffffffffffffffffffffffffffffffffffffff16610d9461092a565b73ffffffffffffffffffffffffffffffffffffffff1614610dea576040517f08c379a0000000000000000000000000000000000000000000000000000000008152600401610de1906124a2565b60405180910390fd5b565b610e068282604051806020016040528060008152506115ca565b5050565b600080610e1683610749565b90508073ffffffffffffffffffffffffffffffffffffffff168473ffffffffffffffffffffffffffffffffffffffff161480610e585750610e578185610ae0565b5b80610e9657508373ffffffffffffffffffffffffffffffffffffffff16610e7e84610532565b73ffffffffffffffffffffffffffffffffffffffff16145b91505092915050565b8273ffffffffffffffffffffffffffffffffffffffff16610ebf82610749565b73ffffffffffffffffffffffffffffffffffffffff1614610f15576040517f08c379a0000000000000000000000000000000000000000000000000000000008152600401610f0c906123c2565b60405180910390fd5b600073ffffffffffffffffffffffffffffffffffffffff168273ffffffffffffffffffffffffffffffffffffffff161415610f85576040517f08c379a0000000000000000000000000000000000000000000000000000000008152600401610f7c90612402565b60405180910390fd5b610f928383836001611625565b8273ffffffffffffffffffffffffffffffffffffffff16610fb282610749565b73ffffffffffffffffffffffffffffffffffffffff1614611008576040517f08c379a0000000000000000000000000000000000000000000000000000000008152600401610fff906123c2565b60405180910390fd5b6004600082815260200190815260200160002060006101000a81549073ffffffffffffffffffffffffffffffffffffffff02191690556001600360008573ffffffffffffffffffffffffffffffffffffffff1673ffffffffffffffffffffffffffffffffffffffff168152602001908152602001600020600082825403925050819055506001600360008473ffffffffffffffffffffffffffffffffffffffff1673ffffffffffffffffffffffffffffffffffffffff16815260200190815260200160002060008282540192505081905550816002600083815260200190815260200160002060006101000a81548173ffffffffffffffffffffffffffffffffffffffff021916908373ffffffffffffffffffffffffffffffffffffffff160217905550808273ffffffffffffffffffffffffffffffffffffffff168473ffffffffffffffffffffffffffffffffffffffff167fddf252ad1be2c89b69c2b068fc378daa952ba7f163c4a11628f55a4df523b3ef60405160405180910390a4611194838383600161162b565b505050565b60006002600083815260200190815260200160002060009054906101000a900473ffffffffffffffffffffffffffffffffffffffff169050919050565b6000600660009054906101000a900473ffffffffffffffffffffffffffffffffffffffff16905081600660006101000a81548173ffffffffffffffffffffffffffffffffffffffff021916908373ffffffffffffffffffffffffffffffffffffffff1602179055508173ffffffffffffffffffffffffffffffffffffffff168173ffffffffffffffffffffffffffffffffffffffff167f8be0079c531659141344cd1fd0a4f28419497f9722a3daafe3b4186f6b6457e060405160405180910390a35050565b8173ffffffffffffffffffffffffffffffffffffffff168373ffffffffffffffffffffffffffffffffffffffff16141561130b576040517f08c379a000000000000000000000000000000000000000000000000000000000815260040161130290612422565b60405180910390fd5b80600560008573ffffffffffffffffffffffffffffffffffffffff1673ffffffffffffffffffffffffffffffffffffffff16815260200190815260200160002060008473ffffffffffffffffffffffffffffffffffffffff1673ffffffffffffffffffffffffffffffffffffffff16815260200190815260200160002060006101000a81548160ff0219169083151502179055508173ffffffffffffffffffffffffffffffffffffffff168373ffffffffffffffffffffffffffffffffffffffff167f17307eab39ab6107e8899845ad3d59bd9653f200f220920489ca2b5937696c31836040516113fc9190612325565b60405180910390a3505050565b611414848484610e9f565b61142084848484611631565b61145f576040517f08c379a000000000000000000000000000000000000000000000000000000000815260040161145690612382565b60405180910390fd5b50505050565b60008073ffffffffffffffffffffffffffffffffffffffff1661148783611199565b73ffffffffffffffffffffffffffffffffffffffff1614159050919050565b6060600060016114b5846117c8565b01905060008167ffffffffffffffff8111156114fa577f4e487b7100000000000000000000000000000000000000000000000000000000600052604160045260246000fd5b6040519080825280601f01601f19166020018201604052801561152c5781602001600182028036833780820191505090505b509050600082602001820190505b6001156115bf578080600190039150507f3031323334353637383961626364656600000000000000000000000000000000600a86061a8153600a85816115a9577f4e487b7100000000000000000000000000000000000000000000000000000000600052601260045260246000fd5b04945060008514156115ba576115bf565b61153a565b819350505050919050565b6115d483836119ff565b6115e16000848484611631565b611620576040517f08c379a000000000000000000000000000000000000000000000000000000000815260040161161790612382565b60405180910390fd5b505050565b50505050565b50505050565b60006116528473ffffffffffffffffffffffffffffffffffffffff16611c1d565b156117bb578373ffffffffffffffffffffffffffffffffffffffff1663150b7a0261167b610cad565b8786866040518563ffffffff1660e01b815260040161169d94939291906122d9565b602060405180830381600087803b1580156116b757600080fd5b505af19250505080156116e857506040513d601f19601f820116820180604052508101906116e59190611ee1565b60015b61176b573d8060008114611718576040519150601f19603f3d011682016040523d82523d6000602084013e61171d565b606091505b50600081511415611763576040517f08c379a000000000000000000000000000000000000000000000000000000000815260040161175a90612382565b60405180910390fd5b805181602001fd5b63150b7a0260e01b7bffffffffffffffffffffffffffffffffffffffffffffffffffffffff1916817bffffffffffffffffffffffffffffffffffffffffffffffffffffffff1916149150506117c0565b600190505b949350505050565b600080600090507a184f03e93ff9f4daa797ed6e38ed64bf6a1f010000000000000000831061184c577a184f03e93ff9f4daa797ed6e38ed64bf6a1f0100000000000000008381611842577f4e487b7100000000000000000000000000000000000000000000000000000000600052601260045260246000fd5b0492506040810190505b6d04ee2d6d415b85acef810000000083106118af576d04ee2d6d415b85acef810000000083816118a5577f4e487b7100000000000000000000000000000000000000000000000000000000600052601260045260246000fd5b0492506020810190505b662386f26fc10000831061190457662386f26fc1000083816118fa577f4e487b7100000000000000000000000000000000000000000000000000000000600052601260045260246000fd5b0492506010810190505b6305f5e1008310611953576305f5e1008381611949577f4e487b7100000000000000000000000000000000000000000000000000000000600052601260045260246000fd5b0492506008810190505b612710831061199e576127108381611994577f4e487b7100000000000000000000000000000000000000000000000000000000600052601260045260246000fd5b0492506004810190505b606483106119e757606483816119dd577f4e487b7100000000000000000000000000000000000000000000000000000000600052601260045260246000fd5b0492506002810190505b600a83106119f6576001810190505b80915050919050565b600073ffffffffffffffffffffffffffffffffffffffff168273ffffffffffffffffffffffffffffffffffffffff161415611a6f576040517f08c379a0000000000000000000000000000000000000000000000000000000008152600401611a6690612462565b60405180910390fd5b611a7881611465565b15611ab8576040517f08c379a0000000000000000000000000000000000000000000000000000000008152600401611aaf906123e2565b60405180910390fd5b611ac6600083836001611625565b611acf81611465565b15611b0f576040517f08c379a0000000000000000000000000000000000000000000000000000000008152600401611b06906123e2565b60405180910390fd5b6001600360008473ffffffffffffffffffffffffffffffffffffffff1673ffffffffffffffffffffffffffffffffffffffff16815260200190815260200160002060008282540192505081905550816002600083815260200190815260200160002060006101000a81548173ffffffffffffffffffffffffffffffffffffffff021916908373ffffffffffffffffffffffffffffffffffffffff160217905550808273ffffffffffffffffffffffffffffffffffffffff16600073ffffffffffffffffffffffffffffffffffffffff167fddf252ad1be2c89b69c2b068fc378daa952ba7f163c4a11628f55a4df523b3ef60405160405180910390a4611c1960008383600161162b565b5050565b6000808273ffffffffffffffffffffffffffffffffffffffff163b119050919050565b6000611c53611c4e84612562565b61253d565b905082815260208101848484011115611c6b57600080fd5b611c768482856126b5565b509392505050565b600081359050611c8d81612bb5565b92915050565b600081359050611ca281612bcc565b92915050565b600081359050611cb781612be3565b92915050565b600081519050611ccc81612be3565b92915050565b600082601f830112611ce357600080fd5b8135611cf3848260208601611c40565b91505092915050565b600081359050611d0b81612bfa565b92915050565b600060208284031215611d2357600080fd5b6000611d3184828501611c7e565b91505092915050565b60008060408385031215611d4d57600080fd5b6000611d5b85828601611c7e565b9250506020611d6c85828601611c7e565b9150509250929050565b600080600060608486031215611d8b57600080fd5b6000611d9986828701611c7e565b9350506020611daa86828701611c7e565b9250506040611dbb86828701611cfc565b9150509250925092565b60008060008060808587031215611ddb57600080fd5b6000611de987828801611c7e565b9450506020611dfa87828801611c7e565b9350506040611e0b87828801611cfc565b925050606085013567ffffffffffffffff811115611e2857600080fd5b611e3487828801611cd2565b91505092959194509250565b60008060408385031215611e5357600080fd5b6000611e6185828601611c7e565b9250506020611e7285828601611c93565b9150509250929050565b60008060408385031215611e8f57600080fd5b6000611e9d85828601611c7e565b9250506020611eae85828601611cfc565b9150509250929050565b600060208284031215611eca57600080fd5b6000611ed884828501611ca8565b91505092915050565b600060208284031215611ef357600080fd5b6000611f0184828501611cbd565b91505092915050565b600060208284031215611f1c57600080fd5b6000611f2a84828501611cfc565b91505092915050565b611f3c81612641565b82525050565b611f4b81612653565b82525050565b6000611f5c826125a8565b611f6681856125be565b9350611f768185602086016126c4565b611f7f816127e7565b840191505092915050565b6000611f95826125b3565b611f9f81856125cf565b9350611faf8185602086016126c4565b611fb8816127e7565b840191505092915050565b6000611fce826125b3565b611fd881856125e0565b9350611fe88185602086016126c4565b80840191505092915050565b60008154612001816126f7565b61200b81866125e0565b9450600182166000811461202657600181146120375761206a565b60ff1983168652818601935061206a565b61204085612593565b60005b8381101561206257815481890152600182019150602081019050612043565b838801955050505b50505092915050565b6000612080602d836125cf565b915061208b826127f8565b604082019050919050565b60006120a36032836125cf565b91506120ae82612847565b604082019050919050565b60006120c66026836125cf565b91506120d182612896565b604082019050919050565b60006120e96025836125cf565b91506120f4826128e5565b604082019050919050565b600061210c601c836125cf565b915061211782612934565b602082019050919050565b600061212f6024836125cf565b915061213a8261295d565b604082019050919050565b60006121526019836125cf565b915061215d826129ac565b602082019050919050565b60006121756029836125cf565b9150612180826129d5565b604082019050919050565b60006121986020836125cf565b91506121a382612a24565b602082019050919050565b60006121bb6031836125cf565b91506121c682612a4d565b604082019050919050565b60006121de6005836125e0565b91506121e982612a9c565b600582019050919050565b60006122016020836125cf565b915061220c82612ac5565b602082019050919050565b60006122246018836125cf565b915061222f82612aee565b602082019050919050565b60006122476021836125cf565b915061225282612b17565b604082019050919050565b600061226a603d836125cf565b915061227582612b66565b604082019050919050565b612289816126ab565b82525050565b600061229b8285611ff4565b91506122a78284611fc3565b91506122b2826121d1565b91508190509392505050565b60006020820190506122d36000830184611f33565b92915050565b60006080820190506122ee6000830187611f33565b6122fb6020830186611f33565b6123086040830185612280565b818103606083015261231a8184611f51565b905095945050505050565b600060208201905061233a6000830184611f42565b92915050565b6000602082019050818103600083015261235a8184611f8a565b905092915050565b6000602082019050818103600083015261237b81612073565b9050919050565b6000602082019050818103600083015261239b81612096565b9050919050565b600060208201905081810360008301526123bb816120b9565b9050919050565b600060208201905081810360008301526123db816120dc565b9050919050565b600060208201905081810360008301526123fb816120ff565b9050919050565b6000602082019050818103600083015261241b81612122565b9050919050565b6000602082019050818103600083015261243b81612145565b9050919050565b6000602082019050818103600083015261245b81612168565b9050919050565b6000602082019050818103600083015261247b8161218b565b9050919050565b6000602082019050818103600083015261249b816121ae565b9050919050565b600060208201905081810360008301526124bb816121f4565b9050919050565b600060208201905081810360008301526124db81612217565b9050919050565b600060208201905081810360008301526124fb8161223a565b9050919050565b6000602082019050818103600083015261251b8161225d565b9050919050565b60006020820190506125376000830184612280565b92915050565b6000612547612558565b90506125538282612729565b919050565b6000604051905090565b600067ffffffffffffffff82111561257d5761257c6127b8565b5b612586826127e7565b9050602081019050919050565b60008190508160005260206000209050919050565b600081519050919050565b600081519050919050565b600082825260208201905092915050565b600082825260208201905092915050565b600081905092915050565b60006125f6826126ab565b9150612601836126ab565b9250827fffffffffffffffffffffffffffffffffffffffffffffffffffffffffffffffff038211156126365761263561275a565b5b828201905092915050565b600061264c8261268b565b9050919050565b60008115159050919050565b60007fffffffff0000000000000000000000000000000000000000000000000000000082169050919050565b600073ffffffffffffffffffffffffffffffffffffffff82169050919050565b6000819050919050565b82818337600083830152505050565b60005b838110156126e25780820151818401526020810190506126c7565b838111156126f1576000848401525b50505050565b6000600282049050600182168061270f57607f821691505b6020821081141561272357612722612789565b5b50919050565b612732826127e7565b810181811067ffffffffffffffff82111715612751576127506127b8565b5b80604052505050565b7f4e487b7100000000000000000000000000000000000000000000000000000000600052601160045260246000fd5b7f4e487b7100000000000000000000000000000000000000000000000000000000600052602260045260246000fd5b7f4e487b7100000000000000000000000000000000000000000000000000000000600052604160045260246000fd5b6000601f19601f8301169050919050565b7f4552433732313a2063616c6c6572206973206e6f7420746f6b656e206f776e6560008201527f72206f7220617070726f76656400000000000000000000000000000000000000602082015250565b7f4552433732313a207472616e7366657220746f206e6f6e20455243373231526560008201527f63656976657220696d706c656d656e7465720000000000000000000000000000602082015250565b7f4f776e61626c653a206e6577206f776e657220697320746865207a65726f206160008201527f6464726573730000000000000000000000000000000000000000000000000000602082015250565b7f4552433732313a207472616e736665722066726f6d20696e636f72726563742060008201527f6f776e6572000000000000000000000000000000000000000000000000000000602082015250565b7f4552433732313a20746f6b656e20616c7265616479206d696e74656400000000600082015250565b7f4552433732313a207472616e7366657220746f20746865207a65726f2061646460008201527f7265737300000000000000000000000000000000000000000000000000000000602082015250565b7f4552433732313a20617070726f766520746f2063616c6c657200000000000000600082015250565b7f4552433732313a2061646472657373207a65726f206973206e6f74206120766160008201527f6c6964206f776e65720000000000000000000000000000000000000000000000602082015250565b7f4552433732313a206d696e7420746f20746865207a65726f2061646472657373600082015250565b7f45524337323155524953746f726167653a2055524920717565727920666f722060008201527f6e6f6e6578697374656e7420746f6b656e000000000000000000000000000000602082015250565b7f2e6a736f6e000000000000000000000000000000000000000000000000000000600082015250565b7f4f776e61626c653a2063616c6c6572206973206e6f7420746865206f776e6572600082015250565b7f4552433732313a20696e76616c696420746f6b656e2049440000000000000000600082015250565b7f4552433732313a20617070726f76616c20746f2063757272656e74206f776e6560008201527f7200000000000000000000000000000000000000000000000000000000000000602082015250565b7f4552433732313a20617070726f76652063616c6c6572206973206e6f7420746f60008201527f6b656e206f776e6572206f7220617070726f76656420666f7220616c6c000000602082015250565b612bbe81612641565b8114612bc957600080fd5b50565b612bd581612653565b8114612be057600080fd5b50565b612bec8161265f565b8114612bf757600080fd5b50565b612c03816126ab565b8114612c0e57600080fd5b5056fea2646970667358221220af773b0cf74e9d7008b1a4654ef7a777f61da88b04ef43199e33f4ba97bf2f5664736f6c63430008010033",
  "linkReferences": {},
  "deployedLinkReferences": {}
}