{
  "_format": "hh-sol-artifact-1",
  "contractName": "PerioNFT",
  "sourceName": "Solidity/PerioNFT.sol",
  "abi": [
    {
      "inputs": [
        {
          "internalType": "string",
          "name": "_name",
          "type": "string"
        },
        {
          "internalType": "string",
          "name": "_symbol",
          "type": "string"
        },
        {
          "internalType": "string",
          "name": "_baseURI",
          "type": "string"
        }
      ],
      "stateMutability": "nonpayable",
      "type": "constructor"
    },
    {
      "anonymous": false,
      "inputs": [
        {
          "indexed": true,
          "internalType": "address",
          "name": "owner",
          "type": "address"
        },
        {
          "indexed": true,
          "internalType": "address",
          "name": "approved",
          "type": "address"
        },
        {
          "indexed": true,
          "internalType": "uint256",
          "name": "tokenId",
          "type": "uint256"
        }
      ],
      "name": "Approval",
      "type": "event"
    },
    {
      "anonymous": false,
      "inputs": [
        {
          "indexed": true,
          "internalType": "address",
          "name": "owner",
          "type": "address"
        },
        {
          "indexed": true,
          "internalType": "address",
          "name": "operator",
          "type": "address"
        },
        {
          "indexed": false,
          "internalType": "bool",
          "name": "approved",
          "type": "bool"
        }
      ],
      "name": "ApprovalForAll",
      "type": "event"
    },
    {
      "anonymous": false,
      "inputs": [
        {
          "indexed": true,
          "internalType": "address",
          "name": "previousOwner",
          "type": "address"
        },
        {
          "indexed": true,
          "internalType": "address",
          "name": "newOwner",
          "type": "address"
        }
      ],
      "name": "OwnershipTransferred",
      "type": "event"
    },
    {
      "anonymous": false,
      "inputs": [
        {
          "indexed": true,
          "internalType": "address",
          "name": "from",
          "type": "address"
        },
        {
          "indexed": true,
          "internalType": "address",
          "name": "to",
          "type": "address"
        },
        {
          "indexed": true,
          "internalType": "uint256",
          "name": "tokenId",
          "type": "uint256"
        }
      ],
      "name": "Transfer",
      "type": "event"
    },
    {
      "inputs": [
        {
          "internalType": "address",
          "name": "to",
          "type": "address"
        },
        {
          "internalType": "uint256",
          "name": "tokenId",
          "type": "uint256"
        }
      ],
      "name": "approve",
      "outputs": [],
      "stateMutability": "nonpayable",
      "type": "function"
    },
    {
      "inputs": [
        {
          "internalType": "address",
          "name": "owner",
          "type": "address"
        }
      ],
      "name": "balanceOf",
      "outputs": [
        {
          "internalType": "uint256",
          "name": "",
          "type": "uint256"
        }
      ],
      "stateMutability": "view",
      "type": "function"
    },
    {
      "inputs": [],
      "name": "baseURI",
      "outputs": [
        {
          "internalType": "string",
          "name": "",
          "type": "string"
        }
      ],
      "stateMutability": "view",
      "type": "function"
    },
    {
      "inputs": [
        {
          "internalType": "address",
          "name": "recipient",
          "type": "address"
        },
        {
          "internalType": "string",
          "name": "metadata",
          "type": "string"
        }
      ],
      "name": "createNFT",
      "outputs": [
        {
          "internalType": "uint256",
          "name": "",
          "type": "uint256"
        }
      ],
      "stateMutability": "nonpayable",
      "type": "function"
    },
    {
      "inputs": [
        {
          "internalType": "uint256",
          "name": "tokenId",
          "type": "uint256"
        }
      ],
      "name": "getApproved",
      "outputs": [
        {
          "internalType": "address",
          "name": "",
          "type": "address"
        }
      ],
      "stateMutability": "view",
      "type": "function"
    },
    {
      "inputs": [
        {
          "internalType": "address",
          "name": "owner",
          "type": "address"
        },
        {
          "internalType": "address",
          "name": "operator",
          "type": "address"
        }
      ],
      "name": "isApprovedForAll",
      "outputs": [
        {
          "internalType": "bool",
          "name": "",
          "type": "bool"
        }
      ],
      "stateMutability": "view",
      "type": "function"
    },
    {
      "inputs": [],
      "name": "name",
      "outputs": [
        {
          "internalType": "string",
          "name": "",
          "type": "string"
        }
      ],
      "stateMutability": "view",
      "type": "function"
    },
    {
      "inputs": [],
      "name": "owner",
      "outputs": [
        {
          "internalType": "address",
          "name": "",
          "type": "address"
        }
      ],
      "stateMutability": "view",
      "type": "function"
    },
    {
      "inputs": [
        {
          "internalType": "uint256",
          "name": "tokenId",
          "type": "uint256"
        }
      ],
      "name": "ownerOf",
      "outputs": [
        {
          "internalType": "address",
          "name": "",
          "type": "address"
        }
      ],
      "stateMutability": "view",
      "type": "function"
    },
    {
      "inputs": [],
      "name": "renounceOwnership",
      "outputs": [],
      "stateMutability": "nonpayable",
      "type": "function"
    },
    {
      "inputs": [
        {
          "internalType": "address",
          "name": "from",
          "type": "address"
        },
        {
          "internalType": "address",
          "name": "to",
          "type": "address"
        },
        {
          "internalType": "uint256",
          "name": "tokenId",
          "type": "uint256"
        }
      ],
      "name": "safeTransferFrom",
      "outputs": [],
      "stateMutability": "nonpayable",
      "type": "function"
    },
    {
      "inputs": [
        {
          "internalType": "address",
          "name": "from",
          "type": "address"
        },
        {
          "internalType": "address",
          "name": "to",
          "type": "address"
        },
        {
          "internalType": "uint256",
          "name": "tokenId",
          "type": "uint256"
        },
        {
          "internalType": "bytes",
          "name": "data",
          "type": "bytes"
        }
      ],
      "name": "safeTransferFrom",
      "outputs": [],
      "stateMutability": "nonpayable",
      "type": "function"
    },
    {
      "inputs": [
        {
          "internalType": "address",
          "name": "operator",
          "type": "address"
        },
        {
          "internalType": "bool",
          "name": "approved",
          "type": "bool"
        }
      ],
      "name": "setApprovalForAll",
      "outputs": [],
      "stateMutability": "nonpayable",
      "type": "function"
    },
    {
      "inputs": [
        {
          "internalType": "bytes4",
          "name": "interfaceId",
          "type": "bytes4"
        }
      ],
      "name": "supportsInterface",
      "outputs": [
        {
          "internalType": "bool",
          "name": "",
          "type": "bool"
        }
      ],
      "stateMutability": "view",
      "type": "function"
    },
    {
      "inputs": [],
      "name": "symbol",
      "outputs": [
        {
          "internalType": "string",
          "name": "",
          "type": "string"
        }
      ],
      "stateMutability": "view",
      "type": "function"
    },
    {
      "inputs": [],
      "name": "tokenCounter",
      "outputs": [
        {
          "internalType": "uint256",
          "name": "",
          "type": "uint256"
        }
      ],
      "stateMutability": "view",
      "type": "function"
    },
    {
      "inputs": [
        {
          "internalType": "uint256",
          "name": "tokenId",
          "type": "uint256"
        }
      ],
      "name": "tokenURI",
      "outputs": [
        {
          "internalType": "string",
          "name": "",
          "type": "string"
        }
      ],
      "stateMutability": "view",
      "type": "function"
    },
    {
      "inputs": [
        {
          "internalType": "address",
          "name": "from",
          "type": "address"
        },
        {
          "internalType": "address",
          "name": "to",
          "type": "address"
        },
        {
          "internalType": "uint256",
          "name": "tokenId",
          "type": "uint256"
        }
      ],
      "name": "transferFrom",
      "outputs": [],
      "stateMutability": "nonpayable",
      "type": "function"
    },
    {
      "inputs": [
        {
          "internalType": "address",
          "name": "newOwner",
          "type": "address"
        }
      ],
      "name": "transferOwnership",
      "outputs": [],
      "stateMutability": "nonpayable",
      "type": "function"
    }
  ],
  "bytecode": "0x60806040523480156200001157600080fd5b506040516200344e3803806200344e8339818101604052810190620000379190620002a7565b828281600090805190602001906200005192919062000185565b5080600190805190602001906200006a92919062000185565b5050506200008d62000081620000b760201b60201c565b620000bf60201b60201c565b8060079080519060200190620000a592919062000185565b506000600881905550505050620004b8565b600033905090565b6000600660009054906101000a900473ffffffffffffffffffffffffffffffffffffffff16905081600660006101000a81548173ffffffffffffffffffffffffffffffffffffffff021916908373ffffffffffffffffffffffffffffffffffffffff1602179055508173ffffffffffffffffffffffffffffffffffffffff168173ffffffffffffffffffffffffffffffffffffffff167f8be0079c531659141344cd1fd0a4f28419497f9722a3daafe3b4186f6b6457e060405160405180910390a35050565b8280546200019390620003dd565b90600052602060002090601f016020900481019282620001b7576000855562000203565b82601f10620001d257805160ff191683800117855562000203565b8280016001018555821562000203579182015b8281111562000202578251825591602001919060010190620001e5565b5b50905062000212919062000216565b5090565b5b808211156200023157600081600090555060010162000217565b5090565b60006200024c620002468462000371565b62000348565b9050828152602081018484840111156200026557600080fd5b62000272848285620003a7565b509392505050565b600082601f8301126200028c57600080fd5b81516200029e84826020860162000235565b91505092915050565b600080600060608486031215620002bd57600080fd5b600084015167ffffffffffffffff811115620002d857600080fd5b620002e6868287016200027a565b935050602084015167ffffffffffffffff8111156200030457600080fd5b62000312868287016200027a565b925050604084015167ffffffffffffffff8111156200033057600080fd5b6200033e868287016200027a565b9150509250925092565b60006200035462000367565b905062000362828262000413565b919050565b6000604051905090565b600067ffffffffffffffff8211156200038f576200038e62000478565b5b6200039a82620004a7565b9050602081019050919050565b60005b83811015620003c7578082015181840152602081019050620003aa565b83811115620003d7576000848401525b50505050565b60006002820490506001821680620003f657607f821691505b602082108114156200040d576200040c62000449565b5b50919050565b6200041e82620004a7565b810181811067ffffffffffffffff8211171562000440576200043f62000478565b5b80604052505050565b7f4e487b7100000000000000000000000000000000000000000000000000000000600052602260045260246000fd5b7f4e487b7100000000000000000000000000000000000000000000000000000000600052604160045260246000fd5b6000601f19601f8301169050919050565b612f8680620004c86000396000f3fe608060405234801561001057600080fd5b50600436106101215760003560e01c8063715018a6116100ad578063b88d4fde11610071578063b88d4fde14610308578063c87b56dd14610324578063d082e38114610354578063e985e9c514610372578063f2fde38b146103a257610121565b8063715018a6146102765780638da5cb5b1461028057806395d89b411461029e578063a22cb465146102bc578063a5614033146102d857610121565b806323b872dd116100f457806323b872dd146101c057806342842e0e146101dc5780636352211e146101f85780636c0360eb1461022857806370a082311461024657610121565b806301ffc9a71461012657806306fdde0314610156578063081812fc14610174578063095ea7b3146101a4575b600080fd5b610140600480360381019061013b919061221f565b6103be565b60405161014d9190612602565b60405180910390f35b61015e6104a0565b60405161016b919061261d565b60405180910390f35b61018e60048036038101906101899190612271565b610532565b60405161019b919061259b565b60405180910390f35b6101be60048036038101906101b991906121e3565b610578565b005b6101da60048036038101906101d59190612089565b610690565b005b6101f660048036038101906101f19190612089565b6106f0565b005b610212600480360381019061020d9190612271565b610710565b60405161021f919061259b565b60405180910390f35b610230610797565b60405161023d919061261d565b60405180910390f35b610260600480360381019061025b9190612024565b610825565b60405161026d919061281f565b60405180910390f35b61027e6108dd565b005b6102886108f1565b604051610295919061259b565b60405180910390f35b6102a661091b565b6040516102b3919061261d565b60405180910390f35b6102d660048036038101906102d19190612153565b6109ad565b005b6102f260048036038101906102ed919061218f565b6109c3565b6040516102ff919061281f565b60405180910390f35b610322600480360381019061031d91906120d8565b610a07565b005b61033e60048036038101906103399190612271565b610a69565b60405161034b919061261d565b60405180910390f35b61035c610bdc565b604051610369919061281f565b60405180910390f35b61038c6004803603810190610387919061204d565b610be2565b6040516103999190612602565b60405180910390f35b6103bc60048036038101906103b79190612024565b610c76565b005b60007f80ac58cd000000000000000000000000000000000000000000000000000000007bffffffffffffffffffffffffffffffffffffffffffffffffffffffff1916827bffffffffffffffffffffffffffffffffffffffffffffffffffffffff1916148061048957507f5b5e139f000000000000000000000000000000000000000000000000000000007bffffffffffffffffffffffffffffffffffffffffffffffffffffffff1916827bffffffffffffffffffffffffffffffffffffffffffffffffffffffff1916145b80610499575061049882610cfa565b5b9050919050565b6060600080546104af90612a10565b80601f01602080910402602001604051908101604052809291908181526020018280546104db90612a10565b80156105285780601f106104fd57610100808354040283529160200191610528565b820191906000526020600020905b81548152906001019060200180831161050b57829003601f168201915b5050505050905090565b600061053d82610d64565b6004600083815260200190815260200160002060009054906101000a900473ffffffffffffffffffffffffffffffffffffffff169050919050565b600061058382610710565b90508073ffffffffffffffffffffffffffffffffffffffff168373ffffffffffffffffffffffffffffffffffffffff1614156105f4576040517f08c379a00000000000000000000000000000000000000000000000000000000081526004016105eb906127df565b60405180910390fd5b8073ffffffffffffffffffffffffffffffffffffffff16610613610daf565b73ffffffffffffffffffffffffffffffffffffffff16148061064257506106418161063c610daf565b610be2565b5b610681576040517f08c379a0000000000000000000000000000000000000000000000000000000008152600401610678906127ff565b60405180910390fd5b61068b8383610db7565b505050565b6106a161069b610daf565b82610e70565b6106e0576040517f08c379a00000000000000000000000000000000000000000000000000000000081526004016106d79061263f565b60405180910390fd5b6106eb838383610f05565b505050565b61070b83838360405180602001604052806000815250610a07565b505050565b60008061071c836111ff565b9050600073ffffffffffffffffffffffffffffffffffffffff168173ffffffffffffffffffffffffffffffffffffffff16141561078e576040517f08c379a0000000000000000000000000000000000000000000000000000000008152600401610785906127bf565b60405180910390fd5b80915050919050565b600780546107a490612a10565b80601f01602080910402602001604051908101604052809291908181526020018280546107d090612a10565b801561081d5780601f106107f25761010080835404028352916020019161081d565b820191906000526020600020905b81548152906001019060200180831161080057829003601f168201915b505050505081565b60008073ffffffffffffffffffffffffffffffffffffffff168273ffffffffffffffffffffffffffffffffffffffff161415610896576040517f08c379a000000000000000000000000000000000000000000000000000000000815260040161088d9061271f565b60405180910390fd5b600360008373ffffffffffffffffffffffffffffffffffffffff1673ffffffffffffffffffffffffffffffffffffffff168152602001908152602001600020549050919050565b6108e561123c565b6108ef60006112ba565b565b6000600660009054906101000a900473ffffffffffffffffffffffffffffffffffffffff16905090565b60606001805461092a90612a10565b80601f016020809104026020016040519081016040528092919081815260200182805461095690612a10565b80156109a35780601f10610978576101008083540402835291602001916109a3565b820191906000526020600020905b81548152906001019060200180831161098657829003601f168201915b5050505050905090565b6109bf6109b8610daf565b8383611380565b5050565b60006109cd61123c565b600060085490506109de84826114ed565b6109e8818461150b565b60016008546109f79190612904565b6008819055508091505092915050565b610a18610a12610daf565b83610e70565b610a57576040517f08c379a0000000000000000000000000000000000000000000000000000000008152600401610a4e9061263f565b60405180910390fd5b610a638484848461157f565b50505050565b6060610a74826115db565b610ab3576040517f08c379a0000000000000000000000000000000000000000000000000000000008152600401610aaa9061277f565b60405180910390fd5b6000600960008481526020019081526020016000208054610ad390612a10565b80601f0160208091040260200160405190810160405280929190818152602001828054610aff90612a10565b8015610b4c5780601f10610b2157610100808354040283529160200191610b4c565b820191906000526020600020905b815481529060010190602001808311610b2f57829003601f168201915b505050505090506000610b5d61161c565b9050600081511415610b73578192505050610bd7565b600082511115610ba8578082604051602001610b90929190612577565b60405160208183030381529060405292505050610bd7565b80610bb2856116ae565b604051602001610bc3929190612577565b604051602081830303815290604052925050505b919050565b60085481565b6000600560008473ffffffffffffffffffffffffffffffffffffffff1673ffffffffffffffffffffffffffffffffffffffff16815260200190815260200160002060008373ffffffffffffffffffffffffffffffffffffffff1673ffffffffffffffffffffffffffffffffffffffff16815260200190815260200160002060009054906101000a900460ff16905092915050565b610c7e61123c565b600073ffffffffffffffffffffffffffffffffffffffff168173ffffffffffffffffffffffffffffffffffffffff161415610cee576040517f08c379a0000000000000000000000000000000000000000000000000000000008152600401610ce59061267f565b60405180910390fd5b610cf7816112ba565b50565b60007f01ffc9a7000000000000000000000000000000000000000000000000000000007bffffffffffffffffffffffffffffffffffffffffffffffffffffffff1916827bffffffffffffffffffffffffffffffffffffffffffffffffffffffff1916149050919050565b610d6d816115db565b610dac576040517f08c379a0000000000000000000000000000000000000000000000000000000008152600401610da3906127bf565b60405180910390fd5b50565b600033905090565b816004600083815260200190815260200160002060006101000a81548173ffffffffffffffffffffffffffffffffffffffff021916908373ffffffffffffffffffffffffffffffffffffffff160217905550808273ffffffffffffffffffffffffffffffffffffffff16610e2a83610710565b73ffffffffffffffffffffffffffffffffffffffff167f8c5be1e5ebec7d5bd14f71427d1e84f3dd0314c0f7b2291e5b200ac8c7c3b92560405160405180910390a45050565b600080610e7c83610710565b90508073ffffffffffffffffffffffffffffffffffffffff168473ffffffffffffffffffffffffffffffffffffffff161480610ebe5750610ebd8185610be2565b5b80610efc57508373ffffffffffffffffffffffffffffffffffffffff16610ee484610532565b73ffffffffffffffffffffffffffffffffffffffff16145b91505092915050565b8273ffffffffffffffffffffffffffffffffffffffff16610f2582610710565b73ffffffffffffffffffffffffffffffffffffffff1614610f7b576040517f08c379a0000000000000000000000000000000000000000000000000000000008152600401610f729061269f565b60405180910390fd5b600073ffffffffffffffffffffffffffffffffffffffff168273ffffffffffffffffffffffffffffffffffffffff161415610feb576040517f08c379a0000000000000000000000000000000000000000000000000000000008152600401610fe2906126df565b60405180910390fd5b610ff883838360016117d2565b8273ffffffffffffffffffffffffffffffffffffffff1661101882610710565b73ffffffffffffffffffffffffffffffffffffffff161461106e576040517f08c379a00000000000000000000000000000000000000000000000000000000081526004016110659061269f565b60405180910390fd5b6004600082815260200190815260200160002060006101000a81549073ffffffffffffffffffffffffffffffffffffffff02191690556001600360008573ffffffffffffffffffffffffffffffffffffffff1673ffffffffffffffffffffffffffffffffffffffff168152602001908152602001600020600082825403925050819055506001600360008473ffffffffffffffffffffffffffffffffffffffff1673ffffffffffffffffffffffffffffffffffffffff16815260200190815260200160002060008282540192505081905550816002600083815260200190815260200160002060006101000a81548173ffffffffffffffffffffffffffffffffffffffff021916908373ffffffffffffffffffffffffffffffffffffffff160217905550808273ffffffffffffffffffffffffffffffffffffffff168473ffffffffffffffffffffffffffffffffffffffff167fddf252ad1be2c89b69c2b068fc378daa952ba7f163c4a11628f55a4df523b3ef60405160405180910390a46111fa83838360016117d8565b505050565b60006002600083815260200190815260200160002060009054906101000a900473ffffffffffffffffffffffffffffffffffffffff169050919050565b611244610daf565b73ffffffffffffffffffffffffffffffffffffffff166112626108f1565b73ffffffffffffffffffffffffffffffffffffffff16146112b8576040517f08c379a00000000000000000000000000000000000000000000000000000000081526004016112af9061279f565b60405180910390fd5b565b6000600660009054906101000a900473ffffffffffffffffffffffffffffffffffffffff16905081600660006101000a81548173ffffffffffffffffffffffffffffffffffffffff021916908373ffffffffffffffffffffffffffffffffffffffff1602179055508173ffffffffffffffffffffffffffffffffffffffff168173ffffffffffffffffffffffffffffffffffffffff167f8be0079c531659141344cd1fd0a4f28419497f9722a3daafe3b4186f6b6457e060405160405180910390a35050565b8173ffffffffffffffffffffffffffffffffffffffff168373ffffffffffffffffffffffffffffffffffffffff1614156113ef576040517f08c379a00000000000000000000000000000000000000000000000000000000081526004016113e6906126ff565b60405180910390fd5b80600560008573ffffffffffffffffffffffffffffffffffffffff1673ffffffffffffffffffffffffffffffffffffffff16815260200190815260200160002060008473ffffffffffffffffffffffffffffffffffffffff1673ffffffffffffffffffffffffffffffffffffffff16815260200190815260200160002060006101000a81548160ff0219169083151502179055508173ffffffffffffffffffffffffffffffffffffffff168373ffffffffffffffffffffffffffffffffffffffff167f17307eab39ab6107e8899845ad3d59bd9653f200f220920489ca2b5937696c31836040516114e09190612602565b60405180910390a3505050565b6115078282604051806020016040528060008152506117de565b5050565b611514826115db565b611553576040517f08c379a000000000000000000000000000000000000000000000000000000000815260040161154a9061273f565b60405180910390fd5b8060096000848152602001908152602001600020908051906020019061157a929190611e48565b505050565b61158a848484610f05565b61159684848484611839565b6115d5576040517f08c379a00000000000000000000000000000000000000000000000000000000081526004016115cc9061265f565b60405180910390fd5b50505050565b60008073ffffffffffffffffffffffffffffffffffffffff166115fd836111ff565b73ffffffffffffffffffffffffffffffffffffffff1614159050919050565b60606007805461162b90612a10565b80601f016020809104026020016040519081016040528092919081815260200182805461165790612a10565b80156116a45780601f10611679576101008083540402835291602001916116a4565b820191906000526020600020905b81548152906001019060200180831161168757829003601f168201915b5050505050905090565b6060600060016116bd846119d0565b01905060008167ffffffffffffffff811115611702577f4e487b7100000000000000000000000000000000000000000000000000000000600052604160045260246000fd5b6040519080825280601f01601f1916602001820160405280156117345781602001600182028036833780820191505090505b509050600082602001820190505b6001156117c7578080600190039150507f3031323334353637383961626364656600000000000000000000000000000000600a86061a8153600a85816117b1577f4e487b7100000000000000000000000000000000000000000000000000000000600052601260045260246000fd5b04945060008514156117c2576117c7565b611742565b819350505050919050565b50505050565b50505050565b6117e88383611c07565b6117f56000848484611839565b611834576040517f08c379a000000000000000000000000000000000000000000000000000000000815260040161182b9061265f565b60405180910390fd5b505050565b600061185a8473ffffffffffffffffffffffffffffffffffffffff16611e25565b156119c3578373ffffffffffffffffffffffffffffffffffffffff1663150b7a02611883610daf565b8786866040518563ffffffff1660e01b81526004016118a594939291906125b6565b602060405180830381600087803b1580156118bf57600080fd5b505af19250505080156118f057506040513d601f19601f820116820180604052508101906118ed9190612248565b60015b611973573d8060008114611920576040519150601f19603f3d011682016040523d82523d6000602084013e611925565b606091505b5060008151141561196b576040517f08c379a00000000000000000000000000000000000000000000000000000000081526004016119629061265f565b60405180910390fd5b805181602001fd5b63150b7a0260e01b7bffffffffffffffffffffffffffffffffffffffffffffffffffffffff1916817bffffffffffffffffffffffffffffffffffffffffffffffffffffffff1916149150506119c8565b600190505b949350505050565b600080600090507a184f03e93ff9f4daa797ed6e38ed64bf6a1f0100000000000000008310611a54577a184f03e93ff9f4daa797ed6e38ed64bf6a1f0100000000000000008381611a4a577f4e487b7100000000000000000000000000000000000000000000000000000000600052601260045260246000fd5b0492506040810190505b6d04ee2d6d415b85acef81000000008310611ab7576d04ee2d6d415b85acef81000000008381611aad577f4e487b7100000000000000000000000000000000000000000000000000000000600052601260045260246000fd5b0492506020810190505b662386f26fc100008310611b0c57662386f26fc100008381611b02577f4e487b7100000000000000000000000000000000000000000000000000000000600052601260045260246000fd5b0492506010810190505b6305f5e1008310611b5b576305f5e1008381611b51577f4e487b7100000000000000000000000000000000000000000000000000000000600052601260045260246000fd5b0492506008810190505b6127108310611ba6576127108381611b9c577f4e487b7100000000000000000000000000000000000000000000000000000000600052601260045260246000fd5b0492506004810190505b60648310611bef5760648381611be5577f4e487b7100000000000000000000000000000000000000000000000000000000600052601260045260246000fd5b0492506002810190505b600a8310611bfe576001810190505b80915050919050565b600073ffffffffffffffffffffffffffffffffffffffff168273ffffffffffffffffffffffffffffffffffffffff161415611c77576040517f08c379a0000000000000000000000000000000000000000000000000000000008152600401611c6e9061275f565b60405180910390fd5b611c80816115db565b15611cc0576040517f08c379a0000000000000000000000000000000000000000000000000000000008152600401611cb7906126bf565b60405180910390fd5b611cce6000838360016117d2565b611cd7816115db565b15611d17576040517f08c379a0000000000000000000000000000000000000000000000000000000008152600401611d0e906126bf565b60405180910390fd5b6001600360008473ffffffffffffffffffffffffffffffffffffffff1673ffffffffffffffffffffffffffffffffffffffff16815260200190815260200160002060008282540192505081905550816002600083815260200190815260200160002060006101000a81548173ffffffffffffffffffffffffffffffffffffffff021916908373ffffffffffffffffffffffffffffffffffffffff160217905550808273ffffffffffffffffffffffffffffffffffffffff16600073ffffffffffffffffffffffffffffffffffffffff167fddf252ad1be2c89b69c2b068fc378daa952ba7f163c4a11628f55a4df523b3ef60405160405180910390a4611e216000838360016117d8565b5050565b6000808273ffffffffffffffffffffffffffffffffffffffff163b119050919050565b828054611e5490612a10565b90600052602060002090601f016020900481019282611e765760008555611ebd565b82601f10611e8f57805160ff1916838001178555611ebd565b82800160010185558215611ebd579182015b82811115611ebc578251825591602001919060010190611ea1565b5b509050611eca9190611ece565b5090565b5b80821115611ee7576000816000905550600101611ecf565b5090565b6000611efe611ef98461285f565b61283a565b905082815260208101848484011115611f1657600080fd5b611f218482856129ce565b509392505050565b6000611f3c611f3784612890565b61283a565b905082815260208101848484011115611f5457600080fd5b611f5f8482856129ce565b509392505050565b600081359050611f7681612ef4565b92915050565b600081359050611f8b81612f0b565b92915050565b600081359050611fa081612f22565b92915050565b600081519050611fb581612f22565b92915050565b600082601f830112611fcc57600080fd5b8135611fdc848260208601611eeb565b91505092915050565b600082601f830112611ff657600080fd5b8135612006848260208601611f29565b91505092915050565b60008135905061201e81612f39565b92915050565b60006020828403121561203657600080fd5b600061204484828501611f67565b91505092915050565b6000806040838503121561206057600080fd5b600061206e85828601611f67565b925050602061207f85828601611f67565b9150509250929050565b60008060006060848603121561209e57600080fd5b60006120ac86828701611f67565b93505060206120bd86828701611f67565b92505060406120ce8682870161200f565b9150509250925092565b600080600080608085870312156120ee57600080fd5b60006120fc87828801611f67565b945050602061210d87828801611f67565b935050604061211e8782880161200f565b925050606085013567ffffffffffffffff81111561213b57600080fd5b61214787828801611fbb565b91505092959194509250565b6000806040838503121561216657600080fd5b600061217485828601611f67565b925050602061218585828601611f7c565b9150509250929050565b600080604083850312156121a257600080fd5b60006121b085828601611f67565b925050602083013567ffffffffffffffff8111156121cd57600080fd5b6121d985828601611fe5565b9150509250929050565b600080604083850312156121f657600080fd5b600061220485828601611f67565b92505060206122158582860161200f565b9150509250929050565b60006020828403121561223157600080fd5b600061223f84828501611f91565b91505092915050565b60006020828403121561225a57600080fd5b600061226884828501611fa6565b91505092915050565b60006020828403121561228357600080fd5b60006122918482850161200f565b91505092915050565b6122a38161295a565b82525050565b6122b28161296c565b82525050565b60006122c3826128c1565b6122cd81856128d7565b93506122dd8185602086016129dd565b6122e681612b00565b840191505092915050565b60006122fc826128cc565b61230681856128e8565b93506123168185602086016129dd565b61231f81612b00565b840191505092915050565b6000612335826128cc565b61233f81856128f9565b935061234f8185602086016129dd565b80840191505092915050565b6000612368602d836128e8565b915061237382612b11565b604082019050919050565b600061238b6032836128e8565b915061239682612b60565b604082019050919050565b60006123ae6026836128e8565b91506123b982612baf565b604082019050919050565b60006123d16025836128e8565b91506123dc82612bfe565b604082019050919050565b60006123f4601c836128e8565b91506123ff82612c4d565b602082019050919050565b60006124176024836128e8565b915061242282612c76565b604082019050919050565b600061243a6019836128e8565b915061244582612cc5565b602082019050919050565b600061245d6029836128e8565b915061246882612cee565b604082019050919050565b6000612480602e836128e8565b915061248b82612d3d565b604082019050919050565b60006124a36020836128e8565b91506124ae82612d8c565b602082019050919050565b60006124c66031836128e8565b91506124d182612db5565b604082019050919050565b60006124e96020836128e8565b91506124f482612e04565b602082019050919050565b600061250c6018836128e8565b915061251782612e2d565b602082019050919050565b600061252f6021836128e8565b915061253a82612e56565b604082019050919050565b6000612552603d836128e8565b915061255d82612ea5565b604082019050919050565b612571816129c4565b82525050565b6000612583828561232a565b915061258f828461232a565b91508190509392505050565b60006020820190506125b0600083018461229a565b92915050565b60006080820190506125cb600083018761229a565b6125d8602083018661229a565b6125e56040830185612568565b81810360608301526125f781846122b8565b905095945050505050565b600060208201905061261760008301846122a9565b92915050565b6000602082019050818103600083015261263781846122f1565b905092915050565b600060208201905081810360008301526126588161235b565b9050919050565b600060208201905081810360008301526126788161237e565b9050919050565b60006020820190508181036000830152612698816123a1565b9050919050565b600060208201905081810360008301526126b8816123c4565b9050919050565b600060208201905081810360008301526126d8816123e7565b9050919050565b600060208201905081810360008301526126f88161240a565b9050919050565b600060208201905081810360008301526127188161242d565b9050919050565b6000602082019050818103600083015261273881612450565b9050919050565b6000602082019050818103600083015261275881612473565b9050919050565b6000602082019050818103600083015261277881612496565b9050919050565b60006020820190508181036000830152612798816124b9565b9050919050565b600060208201905081810360008301526127b8816124dc565b9050919050565b600060208201905081810360008301526127d8816124ff565b9050919050565b600060208201905081810360008301526127f881612522565b9050919050565b6000602082019050818103600083015261281881612545565b9050919050565b60006020820190506128346000830184612568565b92915050565b6000612844612855565b90506128508282612a42565b919050565b6000604051905090565b600067ffffffffffffffff82111561287a57612879612ad1565b5b61288382612b00565b9050602081019050919050565b600067ffffffffffffffff8211156128ab576128aa612ad1565b5b6128b482612b00565b9050602081019050919050565b600081519050919050565b600081519050919050565b600082825260208201905092915050565b600082825260208201905092915050565b600081905092915050565b600061290f826129c4565b915061291a836129c4565b9250827fffffffffffffffffffffffffffffffffffffffffffffffffffffffffffffffff0382111561294f5761294e612a73565b5b828201905092915050565b6000612965826129a4565b9050919050565b60008115159050919050565b60007fffffffff0000000000000000000000000000000000000000000000000000000082169050919050565b600073ffffffffffffffffffffffffffffffffffffffff82169050919050565b6000819050919050565b82818337600083830152505050565b60005b838110156129fb5780820151818401526020810190506129e0565b83811115612a0a576000848401525b50505050565b60006002820490506001821680612a2857607f821691505b60208210811415612a3c57612a3b612aa2565b5b50919050565b612a4b82612b00565b810181811067ffffffffffffffff82111715612a6a57612a69612ad1565b5b80604052505050565b7f4e487b7100000000000000000000000000000000000000000000000000000000600052601160045260246000fd5b7f4e487b7100000000000000000000000000000000000000000000000000000000600052602260045260246000fd5b7f4e487b7100000000000000000000000000000000000000000000000000000000600052604160045260246000fd5b6000601f19601f8301169050919050565b7f4552433732313a2063616c6c6572206973206e6f7420746f6b656e206f776e6560008201527f72206f7220617070726f76656400000000000000000000000000000000000000602082015250565b7f4552433732313a207472616e7366657220746f206e6f6e20455243373231526560008201527f63656976657220696d706c656d656e7465720000000000000000000000000000602082015250565b7f4f776e61626c653a206e6577206f776e657220697320746865207a65726f206160008201527f6464726573730000000000000000000000000000000000000000000000000000602082015250565b7f4552433732313a207472616e736665722066726f6d20696e636f72726563742060008201527f6f776e6572000000000000000000000000000000000000000000000000000000602082015250565b7f4552433732313a20746f6b656e20616c7265616479206d696e74656400000000600082015250565b7f4552433732313a207472616e7366657220746f20746865207a65726f2061646460008201527f7265737300000000000000000000000000000000000000000000000000000000602082015250565b7f4552433732313a20617070726f766520746f2063616c6c657200000000000000600082015250565b7f4552433732313a2061646472657373207a65726f206973206e6f74206120766160008201527f6c6964206f776e65720000000000000000000000000000000000000000000000602082015250565b7f45524337323155524953746f726167653a2055524920736574206f66206e6f6e60008201527f6578697374656e7420746f6b656e000000000000000000000000000000000000602082015250565b7f4552433732313a206d696e7420746f20746865207a65726f2061646472657373600082015250565b7f45524337323155524953746f726167653a2055524920717565727920666f722060008201527f6e6f6e6578697374656e7420746f6b656e000000000000000000000000000000602082015250565b7f4f776e61626c653a2063616c6c6572206973206e6f7420746865206f776e6572600082015250565b7f4552433732313a20696e76616c696420746f6b656e2049440000000000000000600082015250565b7f4552433732313a20617070726f76616c20746f2063757272656e74206f776e6560008201527f7200000000000000000000000000000000000000000000000000000000000000602082015250565b7f4552433732313a20617070726f76652063616c6c6572206973206e6f7420746f60008201527f6b656e206f776e6572206f7220617070726f76656420666f7220616c6c000000602082015250565b612efd8161295a565b8114612f0857600080fd5b50565b612f148161296c565b8114612f1f57600080fd5b50565b612f2b81612978565b8114612f3657600080fd5b50565b612f42816129c4565b8114612f4d57600080fd5b5056fea2646970667358221220469a8680d3fa3572a1625bc26003d3dac8a80717e9d3ef078337e9172619e75264736f6c63430008010033",
  "linkReferences": {},
  "deployedLinkReferences": {}
}